{
  "_format": "hh-sol-artifact-1",
  "contractName": "NFTMarket",
  "sourceName": "contracts/NFTMarket.sol",
  "abi": [
    {
      "anonymous": false,
      "inputs": [
        {
          "indexed": true,
          "internalType": "uint256",
          "name": "itemId",
          "type": "uint256"
        },
        {
          "indexed": true,
          "internalType": "address",
          "name": "nftContract",
          "type": "address"
        },
        {
          "indexed": true,
          "internalType": "uint256",
          "name": "tokenId",
          "type": "uint256"
        },
        {
          "indexed": false,
          "internalType": "address",
          "name": "seller",
          "type": "address"
        },
        {
          "indexed": false,
          "internalType": "address",
          "name": "owner",
          "type": "address"
        },
        {
          "indexed": false,
          "internalType": "uint256",
          "name": "price",
          "type": "uint256"
        },
        {
          "indexed": false,
          "internalType": "bool",
          "name": "sold",
          "type": "bool"
        }
      ],
      "name": "MarketItemCreated",
      "type": "event"
    },
    {
      "inputs": [
        {
          "internalType": "address",
          "name": "nftContract",
          "type": "address"
        },
        {
          "internalType": "uint256",
          "name": "tokenId",
          "type": "uint256"
        },
        {
          "internalType": "uint256",
          "name": "price",
          "type": "uint256"
        }
      ],
      "name": "createMarketItem",
      "outputs": [],
      "stateMutability": "payable",
      "type": "function"
    },
    {
      "inputs": [
        {
          "internalType": "address",
          "name": "nftContract",
          "type": "address"
        },
        {
          "internalType": "uint256",
          "name": "itemId",
          "type": "uint256"
        }
      ],
      "name": "createMarketSale",
      "outputs": [],
      "stateMutability": "payable",
      "type": "function"
    },
    {
      "inputs": [],
      "name": "fetchAllMarketItems",
      "outputs": [
        {
          "components": [
            {
              "internalType": "uint256",
              "name": "itemId",
              "type": "uint256"
            },
            {
              "internalType": "address",
              "name": "nftContract",
              "type": "address"
            },
            {
              "internalType": "uint256",
              "name": "tokenId",
              "type": "uint256"
            },
            {
              "internalType": "address payable",
              "name": "seller",
              "type": "address"
            },
            {
              "internalType": "address payable",
              "name": "owner",
              "type": "address"
            },
            {
              "internalType": "uint256",
              "name": "price",
              "type": "uint256"
            },
            {
              "internalType": "bool",
              "name": "sold",
              "type": "bool"
            }
          ],
          "internalType": "struct NFTMarket.MarketItem[]",
          "name": "",
          "type": "tuple[]"
        }
      ],
      "stateMutability": "view",
      "type": "function"
    },
    {
      "inputs": [],
      "name": "fetchItemsCreated",
      "outputs": [
        {
          "components": [
            {
              "internalType": "uint256",
              "name": "itemId",
              "type": "uint256"
            },
            {
              "internalType": "address",
              "name": "nftContract",
              "type": "address"
            },
            {
              "internalType": "uint256",
              "name": "tokenId",
              "type": "uint256"
            },
            {
              "internalType": "address payable",
              "name": "seller",
              "type": "address"
            },
            {
              "internalType": "address payable",
              "name": "owner",
              "type": "address"
            },
            {
              "internalType": "uint256",
              "name": "price",
              "type": "uint256"
            },
            {
              "internalType": "bool",
              "name": "sold",
              "type": "bool"
            }
          ],
          "internalType": "struct NFTMarket.MarketItem[]",
          "name": "",
          "type": "tuple[]"
        }
      ],
      "stateMutability": "view",
      "type": "function"
    },
    {
      "inputs": [],
      "name": "fetchMarketItems",
      "outputs": [
        {
          "components": [
            {
              "internalType": "uint256",
              "name": "itemId",
              "type": "uint256"
            },
            {
              "internalType": "address",
              "name": "nftContract",
              "type": "address"
            },
            {
              "internalType": "uint256",
              "name": "tokenId",
              "type": "uint256"
            },
            {
              "internalType": "address payable",
              "name": "seller",
              "type": "address"
            },
            {
              "internalType": "address payable",
              "name": "owner",
              "type": "address"
            },
            {
              "internalType": "uint256",
              "name": "price",
              "type": "uint256"
            },
            {
              "internalType": "bool",
              "name": "sold",
              "type": "bool"
            }
          ],
          "internalType": "struct NFTMarket.MarketItem[]",
          "name": "",
          "type": "tuple[]"
        }
      ],
      "stateMutability": "view",
      "type": "function"
    },
    {
      "inputs": [],
      "name": "fetchMyNFTs",
      "outputs": [
        {
          "components": [
            {
              "internalType": "uint256",
              "name": "itemId",
              "type": "uint256"
            },
            {
              "internalType": "address",
              "name": "nftContract",
              "type": "address"
            },
            {
              "internalType": "uint256",
              "name": "tokenId",
              "type": "uint256"
            },
            {
              "internalType": "address payable",
              "name": "seller",
              "type": "address"
            },
            {
              "internalType": "address payable",
              "name": "owner",
              "type": "address"
            },
            {
              "internalType": "uint256",
              "name": "price",
              "type": "uint256"
            },
            {
              "internalType": "bool",
              "name": "sold",
              "type": "bool"
            }
          ],
          "internalType": "struct NFTMarket.MarketItem[]",
          "name": "",
          "type": "tuple[]"
        }
      ],
      "stateMutability": "view",
      "type": "function"
    },
    {
      "inputs": [],
      "name": "getListingPrice",
      "outputs": [
        {
          "internalType": "uint256",
          "name": "",
          "type": "uint256"
        }
      ],
      "stateMutability": "view",
      "type": "function"
    }
  ],
  "bytecode": "0x608060405265e35fa931a00060045534801561001a57600080fd5b506001600081905550611b79806100326000396000f3fe6080604052600436106100705760003560e01c806358eb2df51161004e57806358eb2df5146100f6578063c23b139e14610112578063dfb6452b1461012e578063f064c32e1461015957610070565b80630f08efe01461007557806312e85585146100a0578063202e3740146100cb575b600080fd5b34801561008157600080fd5b5061008a610184565b604051610097919061175f565b60405180910390f35b3480156100ac57600080fd5b506100b5610461565b6040516100c29190611801565b60405180910390f35b3480156100d757600080fd5b506100e061046b565b6040516100ed919061175f565b60405180910390f35b610110600480360381019061010b9190611497565b6107ca565b005b61012c60048036038101906101279190611457565b610b2e565b005b34801561013a57600080fd5b50610143610de7565b604051610150919061175f565b60405180910390f35b34801561016557600080fd5b5061016e611029565b60405161017b919061175f565b60405180910390f35b606060006101926001611388565b905060006101a06002611388565b6101aa6001611388565b6101b491906118bc565b90506000808267ffffffffffffffff8111156101d3576101d26119f1565b5b60405190808252806020026020018201604052801561020c57816020015b6101f96113ac565b8152602001906001900390816101f15790505b50905060005b8481101561045657600073ffffffffffffffffffffffffffffffffffffffff16600560006001846102439190611866565b815260200190815260200160002060040160009054906101000a900473ffffffffffffffffffffffffffffffffffffffff1673ffffffffffffffffffffffffffffffffffffffff161415610443576000600560006001846102a49190611866565b81526020019081526020016000206000015490506000600560008381526020019081526020016000209050806040518060e0016040529081600082015481526020016001820160009054906101000a900473ffffffffffffffffffffffffffffffffffffffff1673ffffffffffffffffffffffffffffffffffffffff1673ffffffffffffffffffffffffffffffffffffffff168152602001600282015481526020016003820160009054906101000a900473ffffffffffffffffffffffffffffffffffffffff1673ffffffffffffffffffffffffffffffffffffffff1673ffffffffffffffffffffffffffffffffffffffff1681526020016004820160009054906101000a900473ffffffffffffffffffffffffffffffffffffffff1673ffffffffffffffffffffffffffffffffffffffff1673ffffffffffffffffffffffffffffffffffffffff168152602001600582015481526020016006820160009054906101000a900460ff1615151515815250508486806104229061194a565b975081518110610435576104346119c2565b5b602002602001018190525050505b808061044e9061194a565b915050610212565b508094505050505090565b6000600454905090565b606060006104796001611388565b90506000805b8281101561051f573373ffffffffffffffffffffffffffffffffffffffff16600560006001846104af9190611866565b815260200190815260200160002060040160009054906101000a900473ffffffffffffffffffffffffffffffffffffffff1673ffffffffffffffffffffffffffffffffffffffff16141561050c5781806105089061194a565b9250505b80806105179061194a565b91505061047f565b5060008167ffffffffffffffff81111561053c5761053b6119f1565b5b60405190808252806020026020018201604052801561057557816020015b6105626113ac565b81526020019060019003908161055a5790505b5090506000805b848110156107bf573373ffffffffffffffffffffffffffffffffffffffff16600560006001846105ac9190611866565b815260200190815260200160002060040160009054906101000a900473ffffffffffffffffffffffffffffffffffffffff1673ffffffffffffffffffffffffffffffffffffffff1614156107ac5760006005600060018461060d9190611866565b81526020019081526020016000206000015490506000600560008381526020019081526020016000209050806040518060e0016040529081600082015481526020016001820160009054906101000a900473ffffffffffffffffffffffffffffffffffffffff1673ffffffffffffffffffffffffffffffffffffffff1673ffffffffffffffffffffffffffffffffffffffff168152602001600282015481526020016003820160009054906101000a900473ffffffffffffffffffffffffffffffffffffffff1673ffffffffffffffffffffffffffffffffffffffff1673ffffffffffffffffffffffffffffffffffffffff1681526020016004820160009054906101000a900473ffffffffffffffffffffffffffffffffffffffff1673ffffffffffffffffffffffffffffffffffffffff1673ffffffffffffffffffffffffffffffffffffffff168152602001600582015481526020016006820160009054906101000a900460ff16151515158152505085858061078b9061194a565b96508151811061079e5761079d6119c2565b5b602002602001018190525050505b80806107b79061194a565b91505061057c565b508194505050505090565b60026000541415610810576040517f08c379a0000000000000000000000000000000000000000000000000000000008152600401610807906117c1565b60405180910390fd5b60026000819055506000811161085b576040517f08c379a0000000000000000000000000000000000000000000000000000000008152600401610852906117e1565b60405180910390fd5b600454341461089f576040517f08c379a0000000000000000000000000000000000000000000000000000000008152600401610896906117a1565b60405180910390fd5b6108a96001611396565b60006108b56001611388565b90506040518060e001604052808281526020018573ffffffffffffffffffffffffffffffffffffffff1681526020018481526020013373ffffffffffffffffffffffffffffffffffffffff168152602001600073ffffffffffffffffffffffffffffffffffffffff16815260200183815260200160001515815250600560008381526020019081526020016000206000820151816000015560208201518160010160006101000a81548173ffffffffffffffffffffffffffffffffffffffff021916908373ffffffffffffffffffffffffffffffffffffffff1602179055506040820151816002015560608201518160030160006101000a81548173ffffffffffffffffffffffffffffffffffffffff021916908373ffffffffffffffffffffffffffffffffffffffff16021790555060808201518160040160006101000a81548173ffffffffffffffffffffffffffffffffffffffff021916908373ffffffffffffffffffffffffffffffffffffffff16021790555060a0820151816005015560c08201518160060160006101000a81548160ff0219169083151502179055509050508373ffffffffffffffffffffffffffffffffffffffff166323b872dd3330866040518463ffffffff1660e01b8152600401610a96939291906116e3565b600060405180830381600087803b158015610ab057600080fd5b505af1158015610ac4573d6000803e3d6000fd5b50505050828473ffffffffffffffffffffffffffffffffffffffff16827f045dfa01dcba2b36aba1d3dc4a874f4b0c5d2fbeb8d2c4b34a7d88c8d8f929d1336000876000604051610b18949392919061171a565b60405180910390a4506001600081905550505050565b60026000541415610b74576040517f08c379a0000000000000000000000000000000000000000000000000000000008152600401610b6b906117c1565b60405180910390fd5b6002600081905550600060056000838152602001908152602001600020600501549050600060056000848152602001908152602001600020600201549050813414610bf4576040517f08c379a0000000000000000000000000000000000000000000000000000000008152600401610beb90611781565b60405180910390fd5b6005600084815260200190815260200160002060030160009054906101000a900473ffffffffffffffffffffffffffffffffffffffff1673ffffffffffffffffffffffffffffffffffffffff166108fc349081150290604051600060405180830381858888f19350505050158015610c70573d6000803e3d6000fd5b508373ffffffffffffffffffffffffffffffffffffffff166323b872dd3033846040518463ffffffff1660e01b8152600401610cae939291906116e3565b600060405180830381600087803b158015610cc857600080fd5b505af1158015610cdc573d6000803e3d6000fd5b50505050336005600085815260200190815260200160002060040160006101000a81548173ffffffffffffffffffffffffffffffffffffffff021916908373ffffffffffffffffffffffffffffffffffffffff16021790555060016005600085815260200190815260200160002060060160006101000a81548160ff021916908315150217905550610d6e6002611396565b600360009054906101000a900473ffffffffffffffffffffffffffffffffffffffff1673ffffffffffffffffffffffffffffffffffffffff166108fc6004549081150290604051600060405180830381858888f19350505050158015610dd8573d6000803e3d6000fd5b50505060016000819055505050565b60606000610df56001611388565b90506000808267ffffffffffffffff811115610e1457610e136119f1565b5b604051908082528060200260200182016040528015610e4d57816020015b610e3a6113ac565b815260200190600190039081610e325790505b50905060005b8381101561101f57600060056000600184610e6e9190611866565b81526020019081526020016000206000015490506000600560008381526020019081526020016000209050806040518060e0016040529081600082015481526020016001820160009054906101000a900473ffffffffffffffffffffffffffffffffffffffff1673ffffffffffffffffffffffffffffffffffffffff1673ffffffffffffffffffffffffffffffffffffffff168152602001600282015481526020016003820160009054906101000a900473ffffffffffffffffffffffffffffffffffffffff1673ffffffffffffffffffffffffffffffffffffffff1673ffffffffffffffffffffffffffffffffffffffff1681526020016004820160009054906101000a900473ffffffffffffffffffffffffffffffffffffffff1673ffffffffffffffffffffffffffffffffffffffff1673ffffffffffffffffffffffffffffffffffffffff168152602001600582015481526020016006820160009054906101000a900460ff161515151581525050848680610fec9061194a565b975081518110610fff57610ffe6119c2565b5b6020026020010181905250505080806110179061194a565b915050610e53565b5080935050505090565b606060006110376001611388565b90506000805b828110156110dd573373ffffffffffffffffffffffffffffffffffffffff166005600060018461106d9190611866565b815260200190815260200160002060030160009054906101000a900473ffffffffffffffffffffffffffffffffffffffff1673ffffffffffffffffffffffffffffffffffffffff1614156110ca5781806110c69061194a565b9250505b80806110d59061194a565b91505061103d565b5060008167ffffffffffffffff8111156110fa576110f96119f1565b5b60405190808252806020026020018201604052801561113357816020015b6111206113ac565b8152602001906001900390816111185790505b5090506000805b8481101561137d573373ffffffffffffffffffffffffffffffffffffffff166005600060018461116a9190611866565b815260200190815260200160002060030160009054906101000a900473ffffffffffffffffffffffffffffffffffffffff1673ffffffffffffffffffffffffffffffffffffffff16141561136a576000600560006001846111cb9190611866565b81526020019081526020016000206000015490506000600560008381526020019081526020016000209050806040518060e0016040529081600082015481526020016001820160009054906101000a900473ffffffffffffffffffffffffffffffffffffffff1673ffffffffffffffffffffffffffffffffffffffff1673ffffffffffffffffffffffffffffffffffffffff168152602001600282015481526020016003820160009054906101000a900473ffffffffffffffffffffffffffffffffffffffff1673ffffffffffffffffffffffffffffffffffffffff1673ffffffffffffffffffffffffffffffffffffffff1681526020016004820160009054906101000a900473ffffffffffffffffffffffffffffffffffffffff1673ffffffffffffffffffffffffffffffffffffffff1673ffffffffffffffffffffffffffffffffffffffff168152602001600582015481526020016006820160009054906101000a900460ff1615151515815250508585806113499061194a565b96508151811061135c5761135b6119c2565b5b602002602001018190525050505b80806113759061194a565b91505061113a565b508194505050505090565b600081600001549050919050565b6001816000016000828254019250508190555050565b6040518060e0016040528060008152602001600073ffffffffffffffffffffffffffffffffffffffff16815260200160008152602001600073ffffffffffffffffffffffffffffffffffffffff168152602001600073ffffffffffffffffffffffffffffffffffffffff168152602001600081526020016000151581525090565b60008135905061143c81611b15565b92915050565b60008135905061145181611b2c565b92915050565b6000806040838503121561146e5761146d611a20565b5b600061147c8582860161142d565b925050602061148d85828601611442565b9150509250929050565b6000806000606084860312156114b0576114af611a20565b5b60006114be8682870161142d565b93505060206114cf86828701611442565b92505060406114e086828701611442565b9150509250925092565b60006114f68383611637565b60e08301905092915050565b61150b81611902565b82525050565b61151a816118f0565b82525050565b611529816118f0565b82525050565b600061153a8261182c565b6115448185611844565b935061154f8361181c565b8060005b8381101561158057815161156788826114ea565b975061157283611837565b925050600181019050611553565b5085935050505092915050565b61159681611914565b82525050565b6115a581611914565b82525050565b60006115b8603f83611855565b91506115c382611a25565b604082019050919050565b60006115db602483611855565b91506115e682611a74565b604082019050919050565b60006115fe601f83611855565b915061160982611ac3565b602082019050919050565b6000611621601c83611855565b915061162c82611aec565b602082019050919050565b60e08201600082015161164d60008501826116c5565b5060208201516116606020850182611511565b50604082015161167360408501826116c5565b5060608201516116866060850182611502565b5060808201516116996080850182611502565b5060a08201516116ac60a08501826116c5565b5060c08201516116bf60c085018261158d565b50505050565b6116ce81611940565b82525050565b6116dd81611940565b82525050565b60006060820190506116f86000830186611520565b6117056020830185611520565b61171260408301846116d4565b949350505050565b600060808201905061172f6000830187611520565b61173c6020830186611520565b61174960408301856116d4565b611756606083018461159c565b95945050505050565b60006020820190508181036000830152611779818461152f565b905092915050565b6000602082019050818103600083015261179a816115ab565b9050919050565b600060208201905081810360008301526117ba816115ce565b9050919050565b600060208201905081810360008301526117da816115f1565b9050919050565b600060208201905081810360008301526117fa81611614565b9050919050565b600060208201905061181660008301846116d4565b92915050565b6000819050602082019050919050565b600081519050919050565b6000602082019050919050565b600082825260208201905092915050565b600082825260208201905092915050565b600061187182611940565b915061187c83611940565b9250827fffffffffffffffffffffffffffffffffffffffffffffffffffffffffffffffff038211156118b1576118b0611993565b5b828201905092915050565b60006118c782611940565b91506118d283611940565b9250828210156118e5576118e4611993565b5b828203905092915050565b60006118fb82611920565b9050919050565b600061190d82611920565b9050919050565b60008115159050919050565b600073ffffffffffffffffffffffffffffffffffffffff82169050919050565b6000819050919050565b600061195582611940565b91507fffffffffffffffffffffffffffffffffffffffffffffffffffffffffffffffff82141561198857611987611993565b5b600182019050919050565b7f4e487b7100000000000000000000000000000000000000000000000000000000600052601160045260246000fd5b7f4e487b7100000000000000000000000000000000000000000000000000000000600052603260045260246000fd5b7f4e487b7100000000000000000000000000000000000000000000000000000000600052604160045260246000fd5b600080fd5b7f506c65617365207375626d6974207468652061736b656420707269636520696e60008201527f206f7264657220746f20636f6d706c6574652074686520707572636861736500602082015250565b7f5072696365206d75737420626520657175616c20746f206c697374696e67207060008201527f7269636500000000000000000000000000000000000000000000000000000000602082015250565b7f5265656e7472616e637947756172643a207265656e7472616e742063616c6c00600082015250565b7f5072696365206d757374206265206174206c6561737420312077656900000000600082015250565b611b1e816118f0565b8114611b2957600080fd5b50565b611b3581611940565b8114611b4057600080fd5b5056fea26469706673582212202556f10715542ad7db76bb42cb945136d707612db9cbe9af890c6d394aa90ca864736f6c63430008070033",
  "linkReferences": {},
  "deployedLinkReferences": {}
}